{
    "contractName": "NFTMarketplace",
    "abi": [
        {
            "inputs": [],
            "stateMutability": "nonpayable",
            "type": "constructor"
        },
        {
            "anonymous": false,
            "inputs": [
                {
                    "indexed": true,
                    "internalType": "address",
                    "name": "owner",
                    "type": "address"
                },
                {
                    "indexed": true,
                    "internalType": "address",
                    "name": "approved",
                    "type": "address"
                },
                {
                    "indexed": true,
                    "internalType": "uint256",
                    "name": "tokenId",
                    "type": "uint256"
                }
            ],
            "name": "Approval",
            "type": "event"
        },
        {
            "anonymous": false,
            "inputs": [
                {
                    "indexed": true,
                    "internalType": "address",
                    "name": "owner",
                    "type": "address"
                },
                {
                    "indexed": true,
                    "internalType": "address",
                    "name": "operator",
                    "type": "address"
                },
                {
                    "indexed": false,
                    "internalType": "bool",
                    "name": "approved",
                    "type": "bool"
                }
            ],
            "name": "ApprovalForAll",
            "type": "event"
        },
        {
            "anonymous": false,
            "inputs": [
                {
                    "indexed": true,
                    "internalType": "address",
                    "name": "from",
                    "type": "address"
                },
                {
                    "indexed": true,
                    "internalType": "address",
                    "name": "to",
                    "type": "address"
                },
                {
                    "indexed": true,
                    "internalType": "uint256",
                    "name": "tokenId",
                    "type": "uint256"
                }
            ],
            "name": "Transfer",
            "type": "event"
        },
        {
            "anonymous": false,
            "inputs": [
                {
                    "indexed": true,
                    "internalType": "uint256",
                    "name": "tokenId",
                    "type": "uint256"
                },
                {
                    "indexed": false,
                    "internalType": "address",
                    "name": "seller",
                    "type": "address"
                },
                {
                    "indexed": false,
                    "internalType": "address",
                    "name": "owner",
                    "type": "address"
                },
                {
                    "indexed": false,
                    "internalType": "uint256",
                    "name": "price",
                    "type": "uint256"
                },
                {
                    "indexed": false,
                    "internalType": "bool",
                    "name": "sold",
                    "type": "bool"
                }
            ],
            "name": "idMarketItemCreated",
            "type": "event"
        },
        {
            "inputs": [
                {
                    "internalType": "address",
                    "name": "to",
                    "type": "address"
                },
                {
                    "internalType": "uint256",
                    "name": "tokenId",
                    "type": "uint256"
                }
            ],
            "name": "approve",
            "outputs": [],
            "stateMutability": "nonpayable",
            "type": "function"
        },
        {
            "inputs": [
                {
                    "internalType": "address",
                    "name": "owner",
                    "type": "address"
                }
            ],
            "name": "balanceOf",
            "outputs": [
                {
                    "internalType": "uint256",
                    "name": "",
                    "type": "uint256"
                }
            ],
            "stateMutability": "view",
            "type": "function"
        },
        {
            "inputs": [
                {
                    "internalType": "uint256",
                    "name": "tokenId",
                    "type": "uint256"
                }
            ],
            "name": "createMarketSale",
            "outputs": [],
            "stateMutability": "payable",
            "type": "function"
        },
        {
            "inputs": [
                {
                    "internalType": "string",
                    "name": "tokenURI",
                    "type": "string"
                },
                {
                    "internalType": "uint256",
                    "name": "price",
                    "type": "uint256"
                }
            ],
            "name": "createToken",
            "outputs": [
                {
                    "internalType": "uint256",
                    "name": "",
                    "type": "uint256"
                }
            ],
            "stateMutability": "payable",
            "type": "function"
        },
        {
            "inputs": [],
            "name": "fetchItemsListed",
            "outputs": [
                {
                    "components": [
                        {
                            "internalType": "uint256",
                            "name": "tokenId",
                            "type": "uint256"
                        },
                        {
                            "internalType": "address payable",
                            "name": "seller",
                            "type": "address"
                        },
                        {
                            "internalType": "address payable",
                            "name": "owner",
                            "type": "address"
                        },
                        {
                            "internalType": "uint256",
                            "name": "price",
                            "type": "uint256"
                        },
                        {
                            "internalType": "bool",
                            "name": "sold",
                            "type": "bool"
                        }
                    ],
                    "internalType": "struct NFTMarketplace.MarketItem[]",
                    "name": "",
                    "type": "tuple[]"
                }
            ],
            "stateMutability": "view",
            "type": "function"
        },
        {
            "inputs": [],
            "name": "fetchMarketItem",
            "outputs": [
                {
                    "components": [
                        {
                            "internalType": "uint256",
                            "name": "tokenId",
                            "type": "uint256"
                        },
                        {
                            "internalType": "address payable",
                            "name": "seller",
                            "type": "address"
                        },
                        {
                            "internalType": "address payable",
                            "name": "owner",
                            "type": "address"
                        },
                        {
                            "internalType": "uint256",
                            "name": "price",
                            "type": "uint256"
                        },
                        {
                            "internalType": "bool",
                            "name": "sold",
                            "type": "bool"
                        }
                    ],
                    "internalType": "struct NFTMarketplace.MarketItem[]",
                    "name": "",
                    "type": "tuple[]"
                }
            ],
            "stateMutability": "view",
            "type": "function"
        },
        {
            "inputs": [],
            "name": "fetchMyNFT",
            "outputs": [
                {
                    "components": [
                        {
                            "internalType": "uint256",
                            "name": "tokenId",
                            "type": "uint256"
                        },
                        {
                            "internalType": "address payable",
                            "name": "seller",
                            "type": "address"
                        },
                        {
                            "internalType": "address payable",
                            "name": "owner",
                            "type": "address"
                        },
                        {
                            "internalType": "uint256",
                            "name": "price",
                            "type": "uint256"
                        },
                        {
                            "internalType": "bool",
                            "name": "sold",
                            "type": "bool"
                        }
                    ],
                    "internalType": "struct NFTMarketplace.MarketItem[]",
                    "name": "",
                    "type": "tuple[]"
                }
            ],
            "stateMutability": "view",
            "type": "function"
        },
        {
            "inputs": [
                {
                    "internalType": "uint256",
                    "name": "tokenId",
                    "type": "uint256"
                }
            ],
            "name": "getApproved",
            "outputs": [
                {
                    "internalType": "address",
                    "name": "",
                    "type": "address"
                }
            ],
            "stateMutability": "view",
            "type": "function"
        },
        {
            "inputs": [],
            "name": "getListingPrice",
            "outputs": [
                {
                    "internalType": "uint256",
                    "name": "",
                    "type": "uint256"
                }
            ],
            "stateMutability": "view",
            "type": "function"
        },
        {
            "inputs": [
                {
                    "internalType": "address",
                    "name": "owner",
                    "type": "address"
                },
                {
                    "internalType": "address",
                    "name": "operator",
                    "type": "address"
                }
            ],
            "name": "isApprovedForAll",
            "outputs": [
                {
                    "internalType": "bool",
                    "name": "",
                    "type": "bool"
                }
            ],
            "stateMutability": "view",
            "type": "function"
        },
        {
            "inputs": [],
            "name": "name",
            "outputs": [
                {
                    "internalType": "string",
                    "name": "",
                    "type": "string"
                }
            ],
            "stateMutability": "view",
            "type": "function"
        },
        {
            "inputs": [
                {
                    "internalType": "uint256",
                    "name": "tokenId",
                    "type": "uint256"
                }
            ],
            "name": "ownerOf",
            "outputs": [
                {
                    "internalType": "address",
                    "name": "",
                    "type": "address"
                }
            ],
            "stateMutability": "view",
            "type": "function"
        },
        {
            "inputs": [
                {
                    "internalType": "uint256",
                    "name": "tokenId",
                    "type": "uint256"
                },
                {
                    "internalType": "uint256",
                    "name": "price",
                    "type": "uint256"
                }
            ],
            "name": "reSellToken",
            "outputs": [],
            "stateMutability": "payable",
            "type": "function"
        },
        {
            "inputs": [
                {
                    "internalType": "address",
                    "name": "from",
                    "type": "address"
                },
                {
                    "internalType": "address",
                    "name": "to",
                    "type": "address"
                },
                {
                    "internalType": "uint256",
                    "name": "tokenId",
                    "type": "uint256"
                }
            ],
            "name": "safeTransferFrom",
            "outputs": [],
            "stateMutability": "nonpayable",
            "type": "function"
        },
        {
            "inputs": [
                {
                    "internalType": "address",
                    "name": "from",
                    "type": "address"
                },
                {
                    "internalType": "address",
                    "name": "to",
                    "type": "address"
                },
                {
                    "internalType": "uint256",
                    "name": "tokenId",
                    "type": "uint256"
                },
                {
                    "internalType": "bytes",
                    "name": "data",
                    "type": "bytes"
                }
            ],
            "name": "safeTransferFrom",
            "outputs": [],
            "stateMutability": "nonpayable",
            "type": "function"
        },
        {
            "inputs": [
                {
                    "internalType": "address",
                    "name": "operator",
                    "type": "address"
                },
                {
                    "internalType": "bool",
                    "name": "approved",
                    "type": "bool"
                }
            ],
            "name": "setApprovalForAll",
            "outputs": [],
            "stateMutability": "nonpayable",
            "type": "function"
        },
        {
            "inputs": [
                {
                    "internalType": "bytes4",
                    "name": "interfaceId",
                    "type": "bytes4"
                }
            ],
            "name": "supportsInterface",
            "outputs": [
                {
                    "internalType": "bool",
                    "name": "",
                    "type": "bool"
                }
            ],
            "stateMutability": "view",
            "type": "function"
        },
        {
            "inputs": [],
            "name": "symbol",
            "outputs": [
                {
                    "internalType": "string",
                    "name": "",
                    "type": "string"
                }
            ],
            "stateMutability": "view",
            "type": "function"
        },
        {
            "inputs": [
                {
                    "internalType": "uint256",
                    "name": "tokenId",
                    "type": "uint256"
                }
            ],
            "name": "tokenURI",
            "outputs": [
                {
                    "internalType": "string",
                    "name": "",
                    "type": "string"
                }
            ],
            "stateMutability": "view",
            "type": "function"
        },
        {
            "inputs": [
                {
                    "internalType": "address",
                    "name": "from",
                    "type": "address"
                },
                {
                    "internalType": "address",
                    "name": "to",
                    "type": "address"
                },
                {
                    "internalType": "uint256",
                    "name": "tokenId",
                    "type": "uint256"
                }
            ],
            "name": "transferFrom",
            "outputs": [],
            "stateMutability": "nonpayable",
            "type": "function"
        },
        {
            "inputs": [
                {
                    "internalType": "uint256",
                    "name": "_listingPrice",
                    "type": "uint256"
                }
            ],
            "name": "updateListingPrice",
            "outputs": [],
            "stateMutability": "payable",
            "type": "function"
        }
    ],
    "bytecode": "60806040526605543df729c0006009553480156200001c57600080fd5b506040518060400160405280601381526020017f4e4654204d657461766172736520546f6b656e0000000000000000000000000081525060405180604001604052806005815260200164135653919560da1b815250816000908162000082919062000140565b50600162000091828262000140565b506200020c915050565b634e487b7160e01b600052604160045260246000fd5b600181811c90821680620000c657607f821691505b602082108103620000e757634e487b7160e01b600052602260045260246000fd5b50919050565b601f8211156200013b57600081815260208120601f850160051c81016020861015620001165750805b601f850160051c820191505b81811015620001375782815560010162000122565b5050505b505050565b81516001600160401b038111156200015c576200015c6200009b565b62000174816200016d8454620000b1565b84620000ed565b602080601f831160018114620001ac5760008415620001935750858301515b600019600386901b1c1916600185901b17855562000137565b600085815260208120601f198616915b82811015620001dd57888601518255948401946001909101908401620001bc565b5085821015620001fc5787850151600019600388901b60f8161c191681555b5050505050600190811b01905550565b6122d4806200021c6000396000f3fe60806040526004361061012a5760003560e01c806372b3b620116100ab578063ae677aa31161006f578063ae677aa314610311578063b88d4fde14610324578063be9af53614610344578063c18763f714610357578063c87b56dd1461036c578063e985e9c51461038c57600080fd5b806372b3b620146102a157806385535b25146102b45780638fafd021146102c757806395d89b41146102dc578063a22cb465146102f157600080fd5b806323b872dd116100f257806323b872dd146101ff57806342842e0e1461021f57806345f8fa801461023f5780636352211e1461026157806370a082311461028157600080fd5b806301ffc9a71461012f57806306fdde0314610164578063081812fc14610186578063095ea7b3146101be57806312e85585146101e0575b600080fd5b34801561013b57600080fd5b5061014f61014a366004611bda565b6103d5565b60405190151581526020015b60405180910390f35b34801561017057600080fd5b50610179610427565b60405161015b9190611c47565b34801561019257600080fd5b506101a66101a1366004611c5a565b6104b9565b6040516001600160a01b03909116815260200161015b565b3480156101ca57600080fd5b506101de6101d9366004611c8f565b6104e0565b005b3480156101ec57600080fd5b506009545b60405190815260200161015b565b34801561020b57600080fd5b506101de61021a366004611cb9565b6105fa565b34801561022b57600080fd5b506101de61023a366004611cb9565b61062b565b34801561024b57600080fd5b50610254610646565b60405161015b9190611cf5565b34801561026d57600080fd5b506101a661027c366004611c5a565b610823565b34801561028d57600080fd5b506101f161029c366004611d71565b610883565b6101f16102af366004611e18565b610909565b6101de6102c2366004611e71565b61094b565b3480156102d357600080fd5b50610254610a83565b3480156102e857600080fd5b50610179610c11565b3480156102fd57600080fd5b506101de61030c366004611e93565b610c20565b6101de61031f366004611c5a565b610c2b565b34801561033057600080fd5b506101de61033f366004611ecf565b610cb0565b6101de610352366004611c5a565b610ce8565b34801561036357600080fd5b50610254610e47565b34801561037857600080fd5b50610179610387366004611c5a565b61101b565b34801561039857600080fd5b5061014f6103a7366004611f4b565b6001600160a01b03918216600090815260056020908152604080832093909416825291909152205460ff1690565b60006001600160e01b031982166380ac58cd60e01b148061040657506001600160e01b03198216635b5e139f60e01b145b8061042157506301ffc9a760e01b6001600160e01b03198316145b92915050565b60606000805461043690611f7e565b80601f016020809104026020016040519081016040528092919081815260200182805461046290611f7e565b80156104af5780601f10610484576101008083540402835291602001916104af565b820191906000526020600020905b81548152906001019060200180831161049257829003601f168201915b5050505050905090565b60006104c48261112b565b506000908152600460205260409020546001600160a01b031690565b60006104eb82610823565b9050806001600160a01b0316836001600160a01b03160361055d5760405162461bcd60e51b815260206004820152602160248201527f4552433732313a20617070726f76616c20746f2063757272656e74206f776e656044820152603960f91b60648201526084015b60405180910390fd5b336001600160a01b0382161480610579575061057981336103a7565b6105eb5760405162461bcd60e51b815260206004820152603d60248201527f4552433732313a20617070726f76652063616c6c6572206973206e6f7420746f60448201527f6b656e206f776e6572206f7220617070726f76656420666f7220616c6c0000006064820152608401610554565b6105f5838361118d565b505050565b61060433826111fb565b6106205760405162461bcd60e51b815260040161055490611fb8565b6105f5838383611279565b6105f583838360405180602001604052806000815250610cb0565b6060600061065360075490565b905060008060005b838110156106b55733600b600061067384600161201b565b81526020810191909152604001600020600101546001600160a01b0316036106a3576106a060018461201b565b92505b806106ad8161202e565b91505061065b565b5060008267ffffffffffffffff8111156106d1576106d1611d8c565b60405190808252806020026020018201604052801561072a57816020015b6040805160a0810182526000808252602080830182905292820181905260608201819052608082015282526000199092019101816106ef5790505b50905060005b8481101561081a5733600b600061074884600161201b565b81526020810191909152604001600020600101546001600160a01b03160361080857600061077782600161201b565b6000818152600b6020908152604091829020825160a0810184528154815260018201546001600160a01b039081169382019390935260028201549092169282019290925260038201546060820152600482015460ff1615156080820152855192935090918590879081106107ed576107ed612047565b602090810291909101015261080360018661201b565b945050505b806108128161202e565b915050610730565b50949350505050565b6000818152600260205260408120546001600160a01b0316806104215760405162461bcd60e51b8152602060048201526018602482015277115490cdcc8c4e881a5b9d985b1a59081d1bdad95b88125160421b6044820152606401610554565b60006001600160a01b0382166108ed5760405162461bcd60e51b815260206004820152602960248201527f4552433732313a2061646472657373207a65726f206973206e6f7420612076616044820152683634b21037bbb732b960b91b6064820152608401610554565b506001600160a01b031660009081526003602052604090205490565b6000610919600780546001019055565b600061092460075490565b905061093033826113dd565b61093a8185611568565b61094481846115fb565b9392505050565b6000828152600b60205260409020600201546001600160a01b031633146109c75760405162461bcd60e51b815260206004820152602a60248201527f4f6e6c79206974656d206f776e65722063616e20706572666f726d20746869736044820152691037b832b930ba34b7b760b11b6064820152608401610554565b6009543414610a245760405162461bcd60e51b8152602060048201526024808201527f5072696365206d75737420626520657175616c20746f206c697374696e6720706044820152637269636560e01b6064820152608401610554565b6000828152600b6020526040902060048101805460ff19169055600381018290556001810180546001600160a01b031990811633179091556002909101805490911630179055610a74600861178d565b610a7f333084611279565b5050565b60606000610a9060075490565b90506000610a9d60085490565b600754610aaa919061205d565b90506000808267ffffffffffffffff811115610ac857610ac8611d8c565b604051908082528060200260200182016040528015610b2157816020015b6040805160a081018252600080825260208083018290529282018190526060820181905260808201528252600019909201910181610ae65790505b50905060005b8481101561081a5730600b6000610b3f84600161201b565b81526020810191909152604001600020600201546001600160a01b031603610bff576000610b6e82600161201b565b6000818152600b6020908152604091829020825160a0810184528154815260018201546001600160a01b039081169382019390935260028201549092169282019290925260038201546060820152600482015460ff161515608082015285519293509091859087908110610be457610be4612047565b6020908102919091010152610bfa60018661201b565b945050505b80610c098161202e565b915050610b27565b60606001805461043690611f7e565b610a7f3383836117e4565b600a546001600160a01b03163314610cab5760405162461bcd60e51b815260206004820152603a60248201527f6f6e6c79206f776e6572206f6620746865206d61726b6574706c61636520636160448201527f6e206368616e676520746865206c697374696e672070726963650000000000006064820152608401610554565b600955565b610cba33836111fb565b610cd65760405162461bcd60e51b815260040161055490611fb8565b610ce2848484846118b2565b50505050565b6000818152600b6020526040902060030154348114610d71576040805162461bcd60e51b81526020600482015260248101919091527f506c65617365207375626d6974207468652061736b696e67207072696365206960448201527f6e206f7264657220746f20636f6d706c657465207468652070757263686173656064820152608401610554565b6000828152600b602052604090206002810180546004909201805460ff191660011790556001600160a01b03193381169216919091179055610db7600880546001019055565b610dc2303384611279565b600a546009546040516001600160a01b039092169181156108fc0291906000818181858888f19350505050158015610dfe573d6000803e3d6000fd5b506000828152600b60205260408082206001015490516001600160a01b03909116913480156108fc02929091818181858888f193505050501580156105f5573d6000803e3d6000fd5b60606000610e5460075490565b905060008060005b83811015610eb65733600b6000610e7484600161201b565b81526020810191909152604001600020600201546001600160a01b031603610ea457610ea160018461201b565b92505b80610eae8161202e565b915050610e5c565b5060008267ffffffffffffffff811115610ed257610ed2611d8c565b604051908082528060200260200182016040528015610f2b57816020015b6040805160a081018252600080825260208083018290529282018190526060820181905260808201528252600019909201910181610ef05790505b50905060005b8481101561081a5733600b6000610f4984600161201b565b81526020810191909152604001600020600201546001600160a01b031603611009576000610f7882600161201b565b6000818152600b6020908152604091829020825160a0810184528154815260018201546001600160a01b039081169382019390935260028201549092169282019290925260038201546060820152600482015460ff161515608082015285519293509091859087908110610fee57610fee612047565b602090810291909101015261100460018661201b565b945050505b806110138161202e565b915050610f31565b60606110268261112b565b6000828152600660205260408120805461103f90611f7e565b80601f016020809104026020016040519081016040528092919081815260200182805461106b90611f7e565b80156110b85780601f1061108d576101008083540402835291602001916110b8565b820191906000526020600020905b81548152906001019060200180831161109b57829003601f168201915b5050505050905060006110d660408051602081019091526000815290565b905080516000036110e8575092915050565b81511561111a578082604051602001611102929190612070565b60405160208183030381529060405292505050919050565b611123846118e5565b949350505050565b6000818152600260205260409020546001600160a01b031661118a5760405162461bcd60e51b8152602060048201526018602482015277115490cdcc8c4e881a5b9d985b1a59081d1bdad95b88125160421b6044820152606401610554565b50565b600081815260046020526040902080546001600160a01b0319166001600160a01b03841690811790915581906111c282610823565b6001600160a01b03167f8c5be1e5ebec7d5bd14f71427d1e84f3dd0314c0f7b2291e5b200ac8c7c3b92560405160405180910390a45050565b60008061120783610823565b9050806001600160a01b0316846001600160a01b0316148061124e57506001600160a01b0380821660009081526005602090815260408083209388168352929052205460ff165b806111235750836001600160a01b0316611267846104b9565b6001600160a01b031614949350505050565b826001600160a01b031661128c82610823565b6001600160a01b0316146112b25760405162461bcd60e51b81526004016105549061209f565b6001600160a01b0382166113145760405162461bcd60e51b8152602060048201526024808201527f4552433732313a207472616e7366657220746f20746865207a65726f206164646044820152637265737360e01b6064820152608401610554565b826001600160a01b031661132782610823565b6001600160a01b03161461134d5760405162461bcd60e51b81526004016105549061209f565b600081815260046020908152604080832080546001600160a01b03199081169091556001600160a01b0387811680865260038552838620805460001901905590871680865283862080546001019055868652600290945282852080549092168417909155905184937fddf252ad1be2c89b69c2b068fc378daa952ba7f163c4a11628f55a4df523b3ef91a4505050565b6001600160a01b0382166114335760405162461bcd60e51b815260206004820181905260248201527f4552433732313a206d696e7420746f20746865207a65726f20616464726573736044820152606401610554565b6000818152600260205260409020546001600160a01b0316156114985760405162461bcd60e51b815260206004820152601c60248201527f4552433732313a20746f6b656e20616c7265616479206d696e746564000000006044820152606401610554565b6000818152600260205260409020546001600160a01b0316156114fd5760405162461bcd60e51b815260206004820152601c60248201527f4552433732313a20746f6b656e20616c7265616479206d696e746564000000006044820152606401610554565b6001600160a01b038216600081815260036020908152604080832080546001019055848352600290915280822080546001600160a01b0319168417905551839291907fddf252ad1be2c89b69c2b068fc378daa952ba7f163c4a11628f55a4df523b3ef908290a45050565b6000828152600260205260409020546001600160a01b03166115e35760405162461bcd60e51b815260206004820152602e60248201527f45524337323155524953746f726167653a2055524920736574206f66206e6f6e60448201526d32bc34b9ba32b73a103a37b5b2b760911b6064820152608401610554565b60008281526006602052604090206105f58282612132565b6000811161164b5760405162461bcd60e51b815260206004820152601760248201527f5072696365206d75737420626520616c206c65737420310000000000000000006044820152606401610554565b60095434146116a85760405162461bcd60e51b815260206004820152602360248201527f50726963206d75737420626520657175616c20746f206c697374696e6720707260448201526269636560e81b6064820152608401610554565b6040805160a08101825283815233602080830182815230848601818152606086018881526000608088018181528b8252600b909652979097209551865591516001860180546001600160a01b03199081166001600160a01b0393841617909155925160028701805490941691161790915593516003840155516004909201805460ff1916921515929092179091556117409184611279565b604080513381523060208201529081018290526000606082015282907fdebdb32cb5230ab727c9c361b16fdb2015df225c10e6a3e7f60ecd5dc5be45169060800160405180910390a25050565b8054806117dc5760405162461bcd60e51b815260206004820152601b60248201527f436f756e7465723a2064656372656d656e74206f766572666c6f7700000000006044820152606401610554565b600019019055565b816001600160a01b0316836001600160a01b0316036118455760405162461bcd60e51b815260206004820152601960248201527f4552433732313a20617070726f766520746f2063616c6c6572000000000000006044820152606401610554565b6001600160a01b03838116600081815260056020908152604080832094871680845294825291829020805460ff191686151590811790915591519182527f17307eab39ab6107e8899845ad3d59bd9653f200f220920489ca2b5937696c31910160405180910390a3505050565b6118bd848484611279565b6118c984848484611958565b610ce25760405162461bcd60e51b8152600401610554906121f2565b60606118f08261112b565b600061190760408051602081019091526000815290565b905060008151116119275760405180602001604052806000815250610944565b8061193184611a59565b604051602001611942929190612070565b6040516020818303038152906040529392505050565b60006001600160a01b0384163b15611a4e57604051630a85bd0160e11b81526001600160a01b0385169063150b7a029061199c903390899088908890600401612244565b6020604051808303816000875af19250505080156119d7575060408051601f3d908101601f191682019092526119d491810190612281565b60015b611a34573d808015611a05576040519150601f19603f3d011682016040523d82523d6000602084013e611a0a565b606091505b508051600003611a2c5760405162461bcd60e51b8152600401610554906121f2565b805181602001fd5b6001600160e01b031916630a85bd0160e11b149050611123565b506001949350505050565b60606000611a6683611aec565b600101905060008167ffffffffffffffff811115611a8657611a86611d8c565b6040519080825280601f01601f191660200182016040528015611ab0576020820181803683370190505b5090508181016020015b600019016f181899199a1a9b1b9c1cb0b131b232b360811b600a86061a8153600a8504945084611aba57509392505050565b60008072184f03e93ff9f4daa797ed6e38ed64bf6a1f0160401b8310611b2b5772184f03e93ff9f4daa797ed6e38ed64bf6a1f0160401b830492506040015b6d04ee2d6d415b85acef81000000008310611b57576d04ee2d6d415b85acef8100000000830492506020015b662386f26fc100008310611b7557662386f26fc10000830492506010015b6305f5e1008310611b8d576305f5e100830492506008015b6127108310611ba157612710830492506004015b60648310611bb3576064830492506002015b600a83106104215760010192915050565b6001600160e01b03198116811461118a57600080fd5b600060208284031215611bec57600080fd5b813561094481611bc4565b60005b83811015611c12578181015183820152602001611bfa565b50506000910152565b60008151808452611c33816020860160208601611bf7565b601f01601f19169290920160200192915050565b6020815260006109446020830184611c1b565b600060208284031215611c6c57600080fd5b5035919050565b80356001600160a01b0381168114611c8a57600080fd5b919050565b60008060408385031215611ca257600080fd5b611cab83611c73565b946020939093013593505050565b600080600060608486031215611cce57600080fd5b611cd784611c73565b9250611ce560208501611c73565b9150604084013590509250925092565b602080825282518282018190526000919060409081850190868401855b82811015611d6457815180518552868101516001600160a01b03908116888701528682015116868601526060808201519086015260809081015115159085015260a09093019290850190600101611d12565b5091979650505050505050565b600060208284031215611d8357600080fd5b61094482611c73565b634e487b7160e01b600052604160045260246000fd5b600067ffffffffffffffff80841115611dbd57611dbd611d8c565b604051601f8501601f19908116603f01168101908282118183101715611de557611de5611d8c565b81604052809350858152868686011115611dfe57600080fd5b858560208301376000602087830101525050509392505050565b60008060408385031215611e2b57600080fd5b823567ffffffffffffffff811115611e4257600080fd5b8301601f81018513611e5357600080fd5b611e6285823560208401611da2565b95602094909401359450505050565b60008060408385031215611e8457600080fd5b50508035926020909101359150565b60008060408385031215611ea657600080fd5b611eaf83611c73565b915060208301358015158114611ec457600080fd5b809150509250929050565b60008060008060808587031215611ee557600080fd5b611eee85611c73565b9350611efc60208601611c73565b925060408501359150606085013567ffffffffffffffff811115611f1f57600080fd5b8501601f81018713611f3057600080fd5b611f3f87823560208401611da2565b91505092959194509250565b60008060408385031215611f5e57600080fd5b611f6783611c73565b9150611f7560208401611c73565b90509250929050565b600181811c90821680611f9257607f821691505b602082108103611fb257634e487b7160e01b600052602260045260246000fd5b50919050565b6020808252602d908201527f4552433732313a2063616c6c6572206973206e6f7420746f6b656e206f776e6560408201526c1c881bdc88185c1c1c9bdd9959609a1b606082015260800190565b634e487b7160e01b600052601160045260246000fd5b8082018082111561042157610421612005565b60006001820161204057612040612005565b5060010190565b634e487b7160e01b600052603260045260246000fd5b8181038181111561042157610421612005565b60008351612082818460208801611bf7565b835190830190612096818360208801611bf7565b01949350505050565b60208082526025908201527f4552433732313a207472616e736665722066726f6d20696e636f72726563742060408201526437bbb732b960d91b606082015260800190565b601f8211156105f557600081815260208120601f850160051c8101602086101561210b5750805b601f850160051c820191505b8181101561212a57828155600101612117565b505050505050565b815167ffffffffffffffff81111561214c5761214c611d8c565b6121608161215a8454611f7e565b846120e4565b602080601f831160018114612195576000841561217d5750858301515b600019600386901b1c1916600185901b17855561212a565b600085815260208120601f198616915b828110156121c4578886015182559484019460019091019084016121a5565b50858210156121e25787850151600019600388901b60f8161c191681555b5050505050600190811b01905550565b60208082526032908201527f4552433732313a207472616e7366657220746f206e6f6e20455243373231526560408201527131b2b4bb32b91034b6b83632b6b2b73a32b960711b606082015260800190565b6001600160a01b038581168252841660208201526040810183905260806060820181905260009061227790830184611c1b565b9695505050505050565b60006020828403121561229357600080fd5b815161094481611bc456fea2646970667358221220c921da8f1389545d834aa70b2ab3cab16ea601a7f7bdde8a3ef5643c9f86fe0764736f6c63430008130033",
    "sourcePath": "c:/Users/YUVRAJ R SHEJUL/Desktop/backend/contracts/NFTMerketplace.sol",
    "compiler": {
        "name": "solc",
        "version": "0.8.19+commit.7dd6d404"
    },
    "functionHashes": {
        "approve(address,uint256)": "095ea7b3",
        "balanceOf(address)": "70a08231",
        "createMarketSale(uint256)": "be9af536",
        "createToken(string,uint256)": "72b3b620",
        "fetchItemsListed()": "45f8fa80",
        "fetchMarketItem()": "8fafd021",
        "fetchMyNFT()": "c18763f7",
        "getApproved(uint256)": "081812fc",
        "getListingPrice()": "12e85585",
        "isApprovedForAll(address,address)": "e985e9c5",
        "name()": "06fdde03",
        "ownerOf(uint256)": "6352211e",
        "reSellToken(uint256,uint256)": "85535b25",
        "safeTransferFrom(address,address,uint256)": "42842e0e",
        "safeTransferFrom(address,address,uint256,bytes)": "b88d4fde",
        "setApprovalForAll(address,bool)": "a22cb465",
        "supportsInterface(bytes4)": "01ffc9a7",
        "symbol()": "95d89b41",
        "tokenURI(uint256)": "c87b56dd",
        "transferFrom(address,address,uint256)": "23b872dd",
        "updateListingPrice(uint256)": "ae677aa3"
    },
    "gasEstimates": {
        "creation": {
            "codeDepositCost": "1783200",
            "executionCost": "infinite",
            "totalCost": "infinite"
        },
        "external": {
            "approve(address,uint256)": "infinite",
            "balanceOf(address)": "2700",
            "createMarketSale(uint256)": "infinite",
            "createToken(string,uint256)": "infinite",
            "fetchItemsListed()": "infinite",
            "fetchMarketItem()": "infinite",
            "fetchMyNFT()": "infinite",
            "getApproved(uint256)": "4792",
            "getListingPrice()": "2393",
            "isApprovedForAll(address,address)": "infinite",
            "name()": "infinite",
            "ownerOf(uint256)": "2627",
            "reSellToken(uint256,uint256)": "infinite",
            "safeTransferFrom(address,address,uint256)": "infinite",
            "safeTransferFrom(address,address,uint256,bytes)": "infinite",
            "setApprovalForAll(address,bool)": "26794",
            "supportsInterface(bytes4)": "534",
            "symbol()": "infinite",
            "tokenURI(uint256)": "infinite",
            "transferFrom(address,address,uint256)": "infinite",
            "updateListingPrice(uint256)": "24462"
        },
        "internal": {
            "createMarketItem(uint256,uint256)": "infinite"
        }
    }
}